{
  "contractName": "Doctive",
  "abi": [
    {
      "inputs": [],
      "stateMutability": "nonpayable",
      "type": "constructor"
    },
    {
      "anonymous": false,
      "inputs": [
        {
          "indexed": true,
          "internalType": "address",
          "name": "pracitioner",
          "type": "address"
        },
        {
          "indexed": true,
          "internalType": "address",
          "name": "patient",
          "type": "address"
        },
        {
          "indexed": false,
          "internalType": "uint256",
          "name": "patientRecordId",
          "type": "uint256"
        }
      ],
      "name": "PatientRecordCreated",
      "type": "event"
    },
    {
      "anonymous": false,
      "inputs": [
        {
          "indexed": true,
          "internalType": "address",
          "name": "patient",
          "type": "address"
        }
      ],
      "name": "PatientRegistered",
      "type": "event"
    },
    {
      "anonymous": false,
      "inputs": [
        {
          "indexed": true,
          "internalType": "address",
          "name": "pracitioner",
          "type": "address"
        }
      ],
      "name": "PractitionerRegistered",
      "type": "event"
    },
    {
      "inputs": [],
      "name": "ownerAddress",
      "outputs": [
        {
          "internalType": "address",
          "name": "",
          "type": "address"
        }
      ],
      "stateMutability": "view",
      "type": "function"
    },
    {
      "inputs": [
        {
          "internalType": "address",
          "name": "",
          "type": "address"
        },
        {
          "internalType": "address",
          "name": "",
          "type": "address"
        }
      ],
      "name": "patientPractitionerConnection",
      "outputs": [
        {
          "internalType": "bool",
          "name": "",
          "type": "bool"
        }
      ],
      "stateMutability": "view",
      "type": "function"
    },
    {
      "inputs": [
        {
          "internalType": "address",
          "name": "",
          "type": "address"
        },
        {
          "internalType": "address",
          "name": "",
          "type": "address"
        },
        {
          "internalType": "uint256",
          "name": "",
          "type": "uint256"
        }
      ],
      "name": "patientRecordAccess",
      "outputs": [
        {
          "internalType": "uint64",
          "name": "patientRecordId",
          "type": "uint64"
        },
        {
          "internalType": "uint256",
          "name": "created",
          "type": "uint256"
        },
        {
          "internalType": "uint256",
          "name": "updated",
          "type": "uint256"
        },
        {
          "internalType": "enum Doctive.ApprovalStatus",
          "name": "status",
          "type": "uint8"
        },
        {
          "internalType": "uint8",
          "name": "numberOfHours",
          "type": "uint8"
        }
      ],
      "stateMutability": "view",
      "type": "function"
    },
    {
      "inputs": [
        {
          "internalType": "string",
          "name": "",
          "type": "string"
        }
      ],
      "name": "patientRecordKeys",
      "outputs": [
        {
          "internalType": "bool",
          "name": "",
          "type": "bool"
        }
      ],
      "stateMutability": "view",
      "type": "function"
    },
    {
      "inputs": [
        {
          "internalType": "address",
          "name": "",
          "type": "address"
        },
        {
          "internalType": "uint256",
          "name": "",
          "type": "uint256"
        }
      ],
      "name": "patientRecords",
      "outputs": [
        {
          "internalType": "string",
          "name": "patientRecordRefId",
          "type": "string"
        },
        {
          "internalType": "address",
          "name": "practitionerAddress",
          "type": "address"
        },
        {
          "internalType": "uint64",
          "name": "version",
          "type": "uint64"
        },
        {
          "internalType": "uint256",
          "name": "created",
          "type": "uint256"
        },
        {
          "internalType": "uint256",
          "name": "updated",
          "type": "uint256"
        },
        {
          "internalType": "bool",
          "name": "isDeleted",
          "type": "bool"
        }
      ],
      "stateMutability": "view",
      "type": "function"
    },
    {
      "inputs": [
        {
          "internalType": "address",
          "name": "",
          "type": "address"
        }
      ],
      "name": "patients",
      "outputs": [
        {
          "internalType": "address",
          "name": "patientAddress",
          "type": "address"
        },
        {
          "internalType": "uint64",
          "name": "recordCount",
          "type": "uint64"
        },
        {
          "internalType": "uint256",
          "name": "created",
          "type": "uint256"
        },
        {
          "internalType": "uint256",
          "name": "updated",
          "type": "uint256"
        }
      ],
      "stateMutability": "view",
      "type": "function"
    },
    {
      "inputs": [
        {
          "internalType": "address",
          "name": "",
          "type": "address"
        }
      ],
      "name": "practitioners",
      "outputs": [
        {
          "internalType": "address",
          "name": "practitionerAddress",
          "type": "address"
        },
        {
          "internalType": "uint256",
          "name": "created",
          "type": "uint256"
        },
        {
          "internalType": "uint256",
          "name": "updated",
          "type": "uint256"
        }
      ],
      "stateMutability": "view",
      "type": "function"
    },
    {
      "inputs": [
        {
          "internalType": "address",
          "name": "",
          "type": "address"
        }
      ],
      "name": "trustedAccounts",
      "outputs": [
        {
          "internalType": "bool",
          "name": "",
          "type": "bool"
        }
      ],
      "stateMutability": "view",
      "type": "function"
    },
    {
      "inputs": [
        {
          "internalType": "address",
          "name": "_newAccount",
          "type": "address"
        }
      ],
      "name": "addTrustedAccount",
      "outputs": [],
      "stateMutability": "nonpayable",
      "type": "function"
    },
    {
      "inputs": [
        {
          "internalType": "address",
          "name": "_account",
          "type": "address"
        }
      ],
      "name": "toggleTrustedAccount",
      "outputs": [],
      "stateMutability": "nonpayable",
      "type": "function"
    },
    {
      "inputs": [],
      "name": "registerPatient",
      "outputs": [],
      "stateMutability": "nonpayable",
      "type": "function"
    },
    {
      "inputs": [
        {
          "internalType": "address",
          "name": "_patientAddress",
          "type": "address"
        },
        {
          "internalType": "string",
          "name": "_patientRecordRefId",
          "type": "string"
        }
      ],
      "name": "addPatientRecord",
      "outputs": [
        {
          "internalType": "uint64",
          "name": "",
          "type": "uint64"
        }
      ],
      "stateMutability": "nonpayable",
      "type": "function"
    },
    {
      "inputs": [],
      "name": "registerPractitioner",
      "outputs": [],
      "stateMutability": "nonpayable",
      "type": "function"
    },
    {
      "inputs": [
        {
          "internalType": "address",
          "name": "_patientAddress",
          "type": "address"
        },
        {
          "internalType": "uint64[]",
          "name": "_patientRecordIds",
          "type": "uint64[]"
        },
        {
          "internalType": "uint8",
          "name": "_numberOfHours",
          "type": "uint8"
        }
      ],
      "name": "requestPatientRecordsAccess",
      "outputs": [],
      "stateMutability": "nonpayable",
      "type": "function"
    }
  ],
  "bytecode": "0x60806040523480156200001157600080fd5b50336000806101000a81548173ffffffffffffffffffffffffffffffffffffffff021916908373ffffffffffffffffffffffffffffffffffffffff16021790555062000063336200006960201b60201c565b62000210565b62000079620000d460201b60201c565b6001600760008373ffffffffffffffffffffffffffffffffffffffff1673ffffffffffffffffffffffffffffffffffffffff16815260200190815260200160002060006101000a81548160ff02191690831515021790555050565b60008054906101000a900473ffffffffffffffffffffffffffffffffffffffff1673ffffffffffffffffffffffffffffffffffffffff163373ffffffffffffffffffffffffffffffffffffffff161462000165576040517f08c379a00000000000000000000000000000000000000000000000000000000081526004016200015c90620001ee565b60405180910390fd5b565b600082825260208201905092915050565b7f43616c6c6572206d7573742062652074686520636f6e7472616374206f776e6560008201527f7221000000000000000000000000000000000000000000000000000000000000602082015250565b6000620001d660228362000167565b9150620001e38262000178565b604082019050919050565b600060208201905081810360008301526200020981620001c7565b9050919050565b6124af80620002206000396000f3fe608060405234801561001057600080fd5b50600436106100ea5760003560e01c80639b0a54281161008c578063cc17ceb011610066578063cc17ceb014610267578063d88b867614610283578063e89ccad31461029f578063f83cfd39146102cf576100ea565b80639b0a5428146101eb578063b4d8cbb814610207578063be0ad17514610237576100ea565b806386794bc3116100c857806386794bc31461015e5780638f84aa091461016857806394f0df6114610186578063966f14de146101bb576100ea565b80630869cfbc146100ef5780634e5e8f2514610122578063822d388514610154575b600080fd5b610109600480360381019061010491906115d2565b610303565b604051610119949392919061164a565b60405180910390f35b61013c600480360381019061013791906115d2565b610367565b60405161014b9392919061168f565b60405180910390f35b61015c6103b1565b005b6101666105db565b005b6101706107c5565b60405161017d91906116c6565b60405180910390f35b6101a0600480360381019061019b919061170d565b6107e9565b6040516101b2969594939291906117f8565b60405180910390f35b6101d560048036038101906101d091906115d2565b61090b565b6040516101e29190611860565b60405180910390f35b61020560048036038101906102009190611a28565b61092b565b005b610221600480360381019061021c9190611b4c565b61097d565b60405161022e9190611ba8565b60405180910390f35b610251600480360381019061024c9190611bc3565b610dd2565b60405161025e9190611860565b60405180910390f35b610281600480360381019061027c91906115d2565b610e01565b005b61029d600480360381019061029891906115d2565b610eb0565b005b6102b960048036038101906102b49190611c03565b610f13565b6040516102c69190611860565b60405180910390f35b6102e960048036038101906102e49190611c4c565b610f49565b6040516102fa959493929190611d25565b60405180910390f35b60016020528060005260406000206000915090508060000160009054906101000a900473ffffffffffffffffffffffffffffffffffffffff16908060000160149054906101000a900467ffffffffffffffff16908060010154908060020154905084565b60056020528060005260406000206000915090508060000160009054906101000a900473ffffffffffffffffffffffffffffffffffffffff16908060010154908060020154905083565b600073ffffffffffffffffffffffffffffffffffffffff16600160003373ffffffffffffffffffffffffffffffffffffffff1673ffffffffffffffffffffffffffffffffffffffff16815260200190815260200160002060000160009054906101000a900473ffffffffffffffffffffffffffffffffffffffff1673ffffffffffffffffffffffffffffffffffffffff1614610482576040517f08c379a000000000000000000000000000000000000000000000000000000000815260040161047990611dc4565b60405180910390fd5b600060405180608001604052803373ffffffffffffffffffffffffffffffffffffffff168152602001600067ffffffffffffffff16815260200142815260200142815250905080600160003373ffffffffffffffffffffffffffffffffffffffff1673ffffffffffffffffffffffffffffffffffffffff16815260200190815260200160002060008201518160000160006101000a81548173ffffffffffffffffffffffffffffffffffffffff021916908373ffffffffffffffffffffffffffffffffffffffff16021790555060208201518160000160146101000a81548167ffffffffffffffff021916908367ffffffffffffffff16021790555060408201518160010155606082015181600201559050503373ffffffffffffffffffffffffffffffffffffffff167fc9fa2003fca4ce0dfc8cb0deae32266b715536df6685365b05b5be96ede8e49c60405160405180910390a250565b600073ffffffffffffffffffffffffffffffffffffffff16600560003373ffffffffffffffffffffffffffffffffffffffff1673ffffffffffffffffffffffffffffffffffffffff16815260200190815260200160002060000160009054906101000a900473ffffffffffffffffffffffffffffffffffffffff1673ffffffffffffffffffffffffffffffffffffffff16146106ac576040517f08c379a00000000000000000000000000000000000000000000000000000000081526004016106a390611e30565b60405180910390fd5b600060405180606001604052803373ffffffffffffffffffffffffffffffffffffffff16815260200142815260200142815250905080600560003373ffffffffffffffffffffffffffffffffffffffff1673ffffffffffffffffffffffffffffffffffffffff16815260200190815260200160002060008201518160000160006101000a81548173ffffffffffffffffffffffffffffffffffffffff021916908373ffffffffffffffffffffffffffffffffffffffff16021790555060208201518160010155604082015181600201559050503373ffffffffffffffffffffffffffffffffffffffff167f23c1446f35fa0d250c739e5cae63e36d1c888bbef0d99904b333025a43d6073360405160405180910390a250565b60008054906101000a900473ffffffffffffffffffffffffffffffffffffffff1681565b6002602052816000526040600020818154811061080557600080fd5b90600052602060002090600502016000915091505080600001805461082990611e7f565b80601f016020809104026020016040519081016040528092919081815260200182805461085590611e7f565b80156108a25780601f10610877576101008083540402835291602001916108a2565b820191906000526020600020905b81548152906001019060200180831161088557829003601f168201915b5050505050908060010160009054906101000a900473ffffffffffffffffffffffffffffffffffffffff16908060010160149054906101000a900467ffffffffffffffff16908060020154908060030154908060040160009054906101000a900460ff16905086565b60076020528060005260406000206000915054906101000a900460ff1681565b610933610fc7565b60005b8251811015610977576109648484838151811061095657610955611eb0565b5b602002602001015184611099565b808061096f90611f0e565b915050610936565b50505050565b6000610987610fc7565b8273ffffffffffffffffffffffffffffffffffffffff16600160008573ffffffffffffffffffffffffffffffffffffffff1673ffffffffffffffffffffffffffffffffffffffff16815260200190815260200160002060000160009054906101000a900473ffffffffffffffffffffffffffffffffffffffff1673ffffffffffffffffffffffffffffffffffffffff1614610a57576040517f08c379a0000000000000000000000000000000000000000000000000000000008152600401610a4e90611fa2565b60405180910390fd5b600382604051610a679190611ffe565b908152602001604051809103902060009054906101000a900460ff1615610ac3576040517f08c379a0000000000000000000000000000000000000000000000000000000008152600401610aba90612061565b60405180910390fd5b6001600383604051610ad59190611ffe565b908152602001604051809103902060006101000a81548160ff021916908315150217905550600160008473ffffffffffffffffffffffffffffffffffffffff1673ffffffffffffffffffffffffffffffffffffffff168152602001908152602001600020600001601481819054906101000a900467ffffffffffffffff1680929190610b6090612081565b91906101000a81548167ffffffffffffffff021916908367ffffffffffffffff1602179055505060006040518060c001604052808481526020013373ffffffffffffffffffffffffffffffffffffffff168152602001600167ffffffffffffffff168152602001428152602001428152602001600015158152509050600260008573ffffffffffffffffffffffffffffffffffffffff1673ffffffffffffffffffffffffffffffffffffffff1681526020019081526020016000208190806001815401808255809150506001900390600052602060002090600502016000909190919091506000820151816000019081610c5a919061225d565b5060208201518160010160006101000a81548173ffffffffffffffffffffffffffffffffffffffff021916908373ffffffffffffffffffffffffffffffffffffffff16021790555060408201518160010160146101000a81548167ffffffffffffffff021916908367ffffffffffffffff160217905550606082015181600201556080820151816003015560a08201518160040160006101000a81548160ff02191690831515021790555050506000600160008673ffffffffffffffffffffffffffffffffffffffff1673ffffffffffffffffffffffffffffffffffffffff16815260200190815260200160002060000160149054906101000a900467ffffffffffffffff1690508473ffffffffffffffffffffffffffffffffffffffff163373ffffffffffffffffffffffffffffffffffffffff167ff71c8c38e4e0ad202b73afcb115d00c90c6d2770203bb747bc132b314c9e5b2583604051610dbf9190612360565b60405180910390a3809250505092915050565b60066020528160005260406000206020528060005260406000206000915091509054906101000a900460ff1681565b610e096114d0565b600760008273ffffffffffffffffffffffffffffffffffffffff1673ffffffffffffffffffffffffffffffffffffffff16815260200190815260200160002060009054906101000a900460ff1615600760008373ffffffffffffffffffffffffffffffffffffffff1673ffffffffffffffffffffffffffffffffffffffff16815260200190815260200160002060006101000a81548160ff02191690831515021790555050565b610eb86114d0565b6001600760008373ffffffffffffffffffffffffffffffffffffffff1673ffffffffffffffffffffffffffffffffffffffff16815260200190815260200160002060006101000a81548160ff02191690831515021790555050565b6003818051602081018201805184825260208301602085012081835280955050505050506000915054906101000a900460ff1681565b600460205282600052604060002060205281600052604060002060205280600052604060002060009250925050508060000160009054906101000a900467ffffffffffffffff16908060010154908060020154908060030160009054906101000a900460ff16908060030160019054906101000a900460ff16905085565b3373ffffffffffffffffffffffffffffffffffffffff16600560003373ffffffffffffffffffffffffffffffffffffffff1673ffffffffffffffffffffffffffffffffffffffff16815260200190815260200160002060000160009054906101000a900473ffffffffffffffffffffffffffffffffffffffff1673ffffffffffffffffffffffffffffffffffffffff1614611097576040517f08c379a000000000000000000000000000000000000000000000000000000000815260040161108e906123c7565b60405180910390fd5b565b6000600460003373ffffffffffffffffffffffffffffffffffffffff1673ffffffffffffffffffffffffffffffffffffffff16815260200190815260200160002060008573ffffffffffffffffffffffffffffffffffffffff1673ffffffffffffffffffffffffffffffffffffffff16815260200190815260200160002060008467ffffffffffffffff16815260200190815260200160002060010154036112b5576040518060a001604052808367ffffffffffffffff1681526020014281526020014281526020016000600381111561117657611175611c9f565b5b81526020018260ff16815250600460003373ffffffffffffffffffffffffffffffffffffffff1673ffffffffffffffffffffffffffffffffffffffff16815260200190815260200160002060008573ffffffffffffffffffffffffffffffffffffffff1673ffffffffffffffffffffffffffffffffffffffff16815260200190815260200160002060008467ffffffffffffffff16815260200190815260200160002060008201518160000160006101000a81548167ffffffffffffffff021916908367ffffffffffffffff160217905550602082015181600101556040820151816002015560608201518160030160006101000a81548160ff0219169083600381111561128757611286611c9f565b5b021790555060808201518160030160016101000a81548160ff021916908360ff1602179055509050506114cb565b42600460003373ffffffffffffffffffffffffffffffffffffffff1673ffffffffffffffffffffffffffffffffffffffff16815260200190815260200160002060008573ffffffffffffffffffffffffffffffffffffffff1673ffffffffffffffffffffffffffffffffffffffff16815260200190815260200160002060008467ffffffffffffffff168152602001908152602001600020600201819055506000600460003373ffffffffffffffffffffffffffffffffffffffff1673ffffffffffffffffffffffffffffffffffffffff16815260200190815260200160002060008573ffffffffffffffffffffffffffffffffffffffff1673ffffffffffffffffffffffffffffffffffffffff16815260200190815260200160002060008467ffffffffffffffff16815260200190815260200160002060030160006101000a81548160ff0219169083600381111561141257611411611c9f565b5b021790555080600460003373ffffffffffffffffffffffffffffffffffffffff1673ffffffffffffffffffffffffffffffffffffffff16815260200190815260200160002060008573ffffffffffffffffffffffffffffffffffffffff1673ffffffffffffffffffffffffffffffffffffffff16815260200190815260200160002060008467ffffffffffffffff16815260200190815260200160002060030160016101000a81548160ff021916908360ff1602179055505b505050565b60008054906101000a900473ffffffffffffffffffffffffffffffffffffffff1673ffffffffffffffffffffffffffffffffffffffff163373ffffffffffffffffffffffffffffffffffffffff161461155e576040517f08c379a000000000000000000000000000000000000000000000000000000000815260040161155590612459565b60405180910390fd5b565b6000604051905090565b600080fd5b600080fd5b600073ffffffffffffffffffffffffffffffffffffffff82169050919050565b600061159f82611574565b9050919050565b6115af81611594565b81146115ba57600080fd5b50565b6000813590506115cc816115a6565b92915050565b6000602082840312156115e8576115e761156a565b5b60006115f6848285016115bd565b91505092915050565b61160881611594565b82525050565b600067ffffffffffffffff82169050919050565b61162b8161160e565b82525050565b6000819050919050565b61164481611631565b82525050565b600060808201905061165f60008301876115ff565b61166c6020830186611622565b611679604083018561163b565b611686606083018461163b565b95945050505050565b60006060820190506116a460008301866115ff565b6116b1602083018561163b565b6116be604083018461163b565b949350505050565b60006020820190506116db60008301846115ff565b92915050565b6116ea81611631565b81146116f557600080fd5b50565b600081359050611707816116e1565b92915050565b600080604083850312156117245761172361156a565b5b6000611732858286016115bd565b9250506020611743858286016116f8565b9150509250929050565b600081519050919050565b600082825260208201905092915050565b60005b8381101561178757808201518184015260208101905061176c565b60008484015250505050565b6000601f19601f8301169050919050565b60006117af8261174d565b6117b98185611758565b93506117c9818560208601611769565b6117d281611793565b840191505092915050565b60008115159050919050565b6117f2816117dd565b82525050565b600060c082019050818103600083015261181281896117a4565b905061182160208301886115ff565b61182e6040830187611622565b61183b606083018661163b565b611848608083018561163b565b61185560a08301846117e9565b979650505050505050565b600060208201905061187560008301846117e9565b92915050565b600080fd5b7f4e487b7100000000000000000000000000000000000000000000000000000000600052604160045260246000fd5b6118b882611793565b810181811067ffffffffffffffff821117156118d7576118d6611880565b5b80604052505050565b60006118ea611560565b90506118f682826118af565b919050565b600067ffffffffffffffff82111561191657611915611880565b5b602082029050602081019050919050565b600080fd5b6119358161160e565b811461194057600080fd5b50565b6000813590506119528161192c565b92915050565b600061196b611966846118fb565b6118e0565b9050808382526020820190506020840283018581111561198e5761198d611927565b5b835b818110156119b757806119a38882611943565b845260208401935050602081019050611990565b5050509392505050565b600082601f8301126119d6576119d561187b565b5b81356119e6848260208601611958565b91505092915050565b600060ff82169050919050565b611a05816119ef565b8114611a1057600080fd5b50565b600081359050611a22816119fc565b92915050565b600080600060608486031215611a4157611a4061156a565b5b6000611a4f868287016115bd565b935050602084013567ffffffffffffffff811115611a7057611a6f61156f565b5b611a7c868287016119c1565b9250506040611a8d86828701611a13565b9150509250925092565b600080fd5b600067ffffffffffffffff821115611ab757611ab6611880565b5b611ac082611793565b9050602081019050919050565b82818337600083830152505050565b6000611aef611aea84611a9c565b6118e0565b905082815260208101848484011115611b0b57611b0a611a97565b5b611b16848285611acd565b509392505050565b600082601f830112611b3357611b3261187b565b5b8135611b43848260208601611adc565b91505092915050565b60008060408385031215611b6357611b6261156a565b5b6000611b71858286016115bd565b925050602083013567ffffffffffffffff811115611b9257611b9161156f565b5b611b9e85828601611b1e565b9150509250929050565b6000602082019050611bbd6000830184611622565b92915050565b60008060408385031215611bda57611bd961156a565b5b6000611be8858286016115bd565b9250506020611bf9858286016115bd565b9150509250929050565b600060208284031215611c1957611c1861156a565b5b600082013567ffffffffffffffff811115611c3757611c3661156f565b5b611c4384828501611b1e565b91505092915050565b600080600060608486031215611c6557611c6461156a565b5b6000611c73868287016115bd565b9350506020611c84868287016115bd565b9250506040611c95868287016116f8565b9150509250925092565b7f4e487b7100000000000000000000000000000000000000000000000000000000600052602160045260246000fd5b60048110611cdf57611cde611c9f565b5b50565b6000819050611cf082611cce565b919050565b6000611d0082611ce2565b9050919050565b611d1081611cf5565b82525050565b611d1f816119ef565b82525050565b600060a082019050611d3a6000830188611622565b611d47602083018761163b565b611d54604083018661163b565b611d616060830185611d07565b611d6e6080830184611d16565b9695505050505050565b7f50617469656e7420616c72656164792065786973747321000000000000000000600082015250565b6000611dae601783611758565b9150611db982611d78565b602082019050919050565b60006020820190508181036000830152611ddd81611da1565b9050919050565b7f50726163746974696f6e657220616c7265616479206578697374732100000000600082015250565b6000611e1a601c83611758565b9150611e2582611de4565b602082019050919050565b60006020820190508181036000830152611e4981611e0d565b9050919050565b7f4e487b7100000000000000000000000000000000000000000000000000000000600052602260045260246000fd5b60006002820490506001821680611e9757607f821691505b602082108103611eaa57611ea9611e50565b5b50919050565b7f4e487b7100000000000000000000000000000000000000000000000000000000600052603260045260246000fd5b7f4e487b7100000000000000000000000000000000000000000000000000000000600052601160045260246000fd5b6000611f1982611631565b91507fffffffffffffffffffffffffffffffffffffffffffffffffffffffffffffffff8203611f4b57611f4a611edf565b5b600182019050919050565b7f50617469656e74206164647265737320646f65736e2774206578697374000000600082015250565b6000611f8c601d83611758565b9150611f9782611f56565b602082019050919050565b60006020820190508181036000830152611fbb81611f7f565b9050919050565b600081905092915050565b6000611fd88261174d565b611fe28185611fc2565b9350611ff2818560208601611769565b80840191505092915050565b600061200a8284611fcd565b915081905092915050565b7f5265636f726420616c7265616479206578697374730000000000000000000000600082015250565b600061204b601583611758565b915061205682612015565b602082019050919050565b6000602082019050818103600083015261207a8161203e565b9050919050565b600061208c8261160e565b915067ffffffffffffffff82036120a6576120a5611edf565b5b600182019050919050565b60008190508160005260206000209050919050565b60006020601f8301049050919050565b600082821b905092915050565b6000600883026121137fffffffffffffffffffffffffffffffffffffffffffffffffffffffffffffffff826120d6565b61211d86836120d6565b95508019841693508086168417925050509392505050565b6000819050919050565b600061215a61215561215084611631565b612135565b611631565b9050919050565b6000819050919050565b6121748361213f565b61218861218082612161565b8484546120e3565b825550505050565b600090565b61219d612190565b6121a881848461216b565b505050565b5b818110156121cc576121c1600082612195565b6001810190506121ae565b5050565b601f821115612211576121e2816120b1565b6121eb846120c6565b810160208510156121fa578190505b61220e612206856120c6565b8301826121ad565b50505b505050565b600082821c905092915050565b600061223460001984600802612216565b1980831691505092915050565b600061224d8383612223565b9150826002028217905092915050565b6122668261174d565b67ffffffffffffffff81111561227f5761227e611880565b5b6122898254611e7f565b6122948282856121d0565b600060209050601f8311600181146122c757600084156122b5578287015190505b6122bf8582612241565b865550612327565b601f1984166122d5866120b1565b60005b828110156122fd578489015182556001820191506020850194506020810190506122d8565b8683101561231a5784890151612316601f891682612223565b8355505b6001600288020188555050505b505050505050565b600061234a6123456123408461160e565b612135565b611631565b9050919050565b61235a8161232f565b82525050565b60006020820190506123756000830184612351565b92915050565b7f43616c6c6572206d757374206265207468652070726163746974696f6e657221600082015250565b60006123b1602083611758565b91506123bc8261237b565b602082019050919050565b600060208201905081810360008301526123e0816123a4565b9050919050565b7f43616c6c6572206d7573742062652074686520636f6e7472616374206f776e6560008201527f7221000000000000000000000000000000000000000000000000000000000000602082015250565b6000612443602283611758565b915061244e826123e7565b604082019050919050565b6000602082019050818103600083015261247281612436565b905091905056fea2646970667358221220cc0699dd3fc457480e9507d46d1a3f2b72291a488cad3bc0510db54d4e4db5d864736f6c63430008110033",
  "immutableReferences": {},
  "source": "// SPDX-License-Identifier: MIT\npragma solidity ^0.8.17;\n\ncontract Doctive {\n    enum ApprovalStatus {\n        Open,\n        Approved,\n        Declined,\n        Canceled\n    }\n\n    struct Patient {\n        address patientAddress;\n        uint64 recordCount;\n        uint256 created;\n        uint256 updated;\n    }\n\n    struct PatientRecord {\n        string patientRecordRefId;\n        address practitionerAddress;\n        uint64 version;\n        uint256 created;\n        uint256 updated;\n        bool isDeleted;\n    }\n\n    struct PatientRecordAccess {\n        uint64 patientRecordId;\n        uint256 created;\n        uint256 updated;\n        ApprovalStatus status;\n        uint8 numberOfHours;\n    }\n\n    struct Practitioner {\n        address practitionerAddress;\n        uint256 created;\n        uint256 updated;\n    }\n\n    address public ownerAddress;\n\n    mapping(address => Patient) public patients;\n    mapping(address => PatientRecord[]) public patientRecords;\n    mapping(string => bool) public patientRecordKeys;\n    mapping(address => mapping(address => mapping(uint256 => PatientRecordAccess)))\n        public patientRecordAccess;\n    mapping(address => Practitioner) public practitioners;\n    mapping(address => mapping(address => bool))\n        public patientPractitionerConnection;\n    mapping(address => bool) public trustedAccounts;\n\n    constructor() {\n        ownerAddress = msg.sender;\n        addTrustedAccount(msg.sender);\n    }\n\n    // ---------- EVENTS ----------\n\n    event PatientRegistered(address indexed patient);\n    event PatientRecordCreated(\n        address indexed pracitioner,\n        address indexed patient,\n        uint256 patientRecordId\n    );\n    event PractitionerRegistered(address indexed pracitioner);\n\n    // ---------- MODIFIERS ----------\n\n    function _onlyOwner() private view {\n        require(\n            msg.sender == ownerAddress,\n            \"Caller must be the contract owner!\"\n        );\n    }\n\n    modifier onlyOwner() {\n        _onlyOwner();\n        _;\n    }\n\n    function _onlyTrustedAccounts() private view {\n        require(\n            trustedAccounts[msg.sender],\n            \"Caller must be a trusted account!\"\n        );\n    }\n\n    modifier onlyTrustedAccounts() {\n        _onlyTrustedAccounts();\n        _;\n    }\n\n    function _onlyPatient() private view {\n        require(\n            patients[msg.sender].patientAddress == msg.sender,\n            \"Caller must be the patient!\"\n        );\n    }\n\n    modifier onlyPatient() {\n        _onlyPatient();\n        _;\n    }\n\n    function _onlyPractitioner() private view {\n        require(\n            practitioners[msg.sender].practitionerAddress == msg.sender,\n            \"Caller must be the practitioner!\"\n        );\n    }\n\n    modifier onlyPractitioner() {\n        _onlyPractitioner();\n        _;\n    }\n\n    // ---------- CONTRACT MANAGEMENT ----------\n\n    function addTrustedAccount(address _newAccount) public onlyOwner {\n        trustedAccounts[_newAccount] = true;\n    }\n\n    function toggleTrustedAccount(address _account) external onlyOwner {\n        trustedAccounts[_account] = !trustedAccounts[_account];\n    }\n\n    // ---------- PATIENT ----------\n\n    function registerPatient() external {\n        require(\n            patients[msg.sender].patientAddress == address(0),\n            \"Patient already exists!\"\n        );\n\n        Patient memory patient = Patient(\n            msg.sender,\n            0,\n            block.timestamp,\n            block.timestamp\n        );\n        patients[msg.sender] = patient;\n\n        emit PatientRegistered(msg.sender);\n    }\n\n    function addPatientRecord(\n        address _patientAddress,\n        string memory _patientRecordRefId\n    ) external onlyPractitioner returns (uint64) {\n        require(\n            patients[_patientAddress].patientAddress == _patientAddress,\n            \"Patient address doesn't exist\"\n        );\n        require(\n            !patientRecordKeys[_patientRecordRefId],\n            \"Record already exists\"\n        );\n\n        patientRecordKeys[_patientRecordRefId] = true;\n        patients[_patientAddress].recordCount++;\n        PatientRecord memory record = PatientRecord(\n            _patientRecordRefId,\n            msg.sender,\n            1,\n            block.timestamp,\n            block.timestamp,\n            false\n        );\n        patientRecords[_patientAddress].push(record);\n        uint64 patientRecordCount = patients[_patientAddress].recordCount;\n        emit PatientRecordCreated(\n            msg.sender,\n            _patientAddress,\n            patientRecordCount\n        );\n\n        return patientRecordCount;\n    }\n\n    // ---------- PRACTIIONER ----------\n\n    function registerPractitioner() external {\n        require(\n            practitioners[msg.sender].practitionerAddress == address(0),\n            \"Practitioner already exists!\"\n        );\n\n        Practitioner memory practitioner = Practitioner(\n            msg.sender,\n            block.timestamp,\n            block.timestamp\n        );\n        practitioners[msg.sender] = practitioner;\n\n        emit PractitionerRegistered(msg.sender);\n    }\n\n    function requestPatientRecordsAccess(\n        address _patientAddress,\n        uint64[] memory _patientRecordIds,\n        uint8 _numberOfHours\n    ) external onlyPractitioner {\n        for (uint256 i = 0; i < _patientRecordIds.length; i++) {\n            _requestPatientRecordAccess(\n                _patientAddress,\n                _patientRecordIds[i],\n                _numberOfHours\n            );\n        }\n    }\n\n    // ---------- HELPERS ----------\n\n    function _requestPatientRecordAccess(\n        address _patientAddress,\n        uint64 _patientRecordId,\n        uint8 _numberOfHours\n    ) internal {\n        if (\n            patientRecordAccess[msg.sender][_patientAddress][_patientRecordId]\n                .created == 0\n        ) {\n            patientRecordAccess[msg.sender][_patientAddress][\n                _patientRecordId\n            ] = PatientRecordAccess(\n                _patientRecordId,\n                block.timestamp,\n                block.timestamp,\n                ApprovalStatus.Open,\n                _numberOfHours\n            );\n        } else {\n            patientRecordAccess[msg.sender][_patientAddress][_patientRecordId]\n                .updated = block.timestamp;\n            patientRecordAccess[msg.sender][_patientAddress][_patientRecordId]\n                .status = ApprovalStatus.Open;\n            patientRecordAccess[msg.sender][_patientAddress][_patientRecordId]\n                .numberOfHours = _numberOfHours;\n        }\n    }\n}\n",
  "sourcePath": "/home/d4fttasiii/git/doctive_new/doctive/src/web3/contracts/Doctive.sol",
  "compiler": {
    "name": "solc",
    "version": "0.8.17+commit.8df45f5f.Emscripten.clang"
  },
  "schemaVersion": "3.4.11",
  "updatedAt": "2023-01-02T22:18:51.580Z",
  "devdoc": {
    "kind": "dev",
    "methods": {},
    "version": 1
  },
  "userdoc": {
    "kind": "user",
    "methods": {},
    "version": 1
  }
}